{
  "contractName": "ZombieOwnership",
  "abi": [
    {
      "anonymous": false,
      "inputs": [
        {
          "indexed": true,
          "internalType": "address",
          "name": "_owner",
          "type": "address"
        },
        {
          "indexed": true,
          "internalType": "address",
          "name": "_approved",
          "type": "address"
        },
        {
          "indexed": true,
          "internalType": "uint256",
          "name": "_tokenId",
          "type": "uint256"
        }
      ],
      "name": "Approval",
      "type": "event"
    },
    {
      "anonymous": false,
      "inputs": [
        {
          "indexed": false,
          "internalType": "uint256",
          "name": "zombieId",
          "type": "uint256"
        },
        {
          "indexed": false,
          "internalType": "string",
          "name": "name",
          "type": "string"
        },
        {
          "indexed": false,
          "internalType": "uint256",
          "name": "dna",
          "type": "uint256"
        }
      ],
      "name": "NewZombie",
      "type": "event"
    },
    {
      "anonymous": false,
      "inputs": [
        {
          "indexed": true,
          "internalType": "address",
          "name": "previousOwner",
          "type": "address"
        },
        {
          "indexed": true,
          "internalType": "address",
          "name": "newOwner",
          "type": "address"
        }
      ],
      "name": "OwnershipTransferred",
      "type": "event"
    },
    {
      "anonymous": false,
      "inputs": [
        {
          "indexed": true,
          "internalType": "address",
          "name": "_from",
          "type": "address"
        },
        {
          "indexed": true,
          "internalType": "address",
          "name": "_to",
          "type": "address"
        },
        {
          "indexed": true,
          "internalType": "uint256",
          "name": "_tokenId",
          "type": "uint256"
        }
      ],
      "name": "Transfer",
      "type": "event"
    },
    {
      "constant": false,
      "inputs": [
        {
          "internalType": "uint256",
          "name": "_zombieId",
          "type": "uint256"
        },
        {
          "internalType": "uint256",
          "name": "_targetId",
          "type": "uint256"
        }
      ],
      "name": "attack",
      "outputs": [],
      "payable": false,
      "stateMutability": "nonpayable",
      "type": "function"
    },
    {
      "constant": false,
      "inputs": [
        {
          "internalType": "uint256",
          "name": "_zombieId",
          "type": "uint256"
        },
        {
          "internalType": "uint256",
          "name": "_newDna",
          "type": "uint256"
        }
      ],
      "name": "changeDna",
      "outputs": [],
      "payable": false,
      "stateMutability": "nonpayable",
      "type": "function"
    },
    {
      "constant": false,
      "inputs": [
        {
          "internalType": "uint256",
          "name": "_zombieId",
          "type": "uint256"
        },
        {
          "internalType": "string",
          "name": "_newName",
          "type": "string"
        }
      ],
      "name": "changeName",
      "outputs": [],
      "payable": true,
      "stateMutability": "payable",
      "type": "function"
    },
    {
      "constant": false,
      "inputs": [
        {
          "internalType": "string",
          "name": "_name",
          "type": "string"
        }
      ],
      "name": "createRandomZombie",
      "outputs": [],
      "payable": false,
      "stateMutability": "nonpayable",
      "type": "function"
    },
    {
      "constant": false,
      "inputs": [
        {
          "internalType": "uint256",
          "name": "_zombieId",
          "type": "uint256"
        },
        {
          "internalType": "uint256",
          "name": "_kittyId",
          "type": "uint256"
        }
      ],
      "name": "feedOnKitty",
      "outputs": [],
      "payable": false,
      "stateMutability": "nonpayable",
      "type": "function"
    },
    {
      "constant": true,
      "inputs": [
        {
          "internalType": "address",
          "name": "_owner",
          "type": "address"
        }
      ],
      "name": "getZombiesByOwner",
      "outputs": [
        {
          "internalType": "uint256[]",
          "name": "",
          "type": "uint256[]"
        }
      ],
      "payable": false,
      "stateMutability": "view",
      "type": "function"
    },
    {
      "constant": true,
      "inputs": [
        {
          "internalType": "address",
          "name": "_owner",
          "type": "address"
        }
      ],
      "name": "getZombiesNotOwner",
      "outputs": [
        {
          "internalType": "uint256[]",
          "name": "",
          "type": "uint256[]"
        }
      ],
      "payable": false,
      "stateMutability": "view",
      "type": "function"
    },
    {
      "constant": true,
      "inputs": [],
      "name": "isOwner",
      "outputs": [
        {
          "internalType": "bool",
          "name": "",
          "type": "bool"
        }
      ],
      "payable": false,
      "stateMutability": "view",
      "type": "function"
    },
    {
      "constant": false,
      "inputs": [
        {
          "internalType": "uint256",
          "name": "_zombieId",
          "type": "uint256"
        }
      ],
      "name": "levelUp",
      "outputs": [],
      "payable": true,
      "stateMutability": "payable",
      "type": "function"
    },
    {
      "constant": true,
      "inputs": [],
      "name": "owner",
      "outputs": [
        {
          "internalType": "address",
          "name": "",
          "type": "address"
        }
      ],
      "payable": false,
      "stateMutability": "view",
      "type": "function"
    },
    {
      "constant": false,
      "inputs": [],
      "name": "renounceOwnership",
      "outputs": [],
      "payable": false,
      "stateMutability": "nonpayable",
      "type": "function"
    },
    {
      "constant": false,
      "inputs": [
        {
          "internalType": "address",
          "name": "_address",
          "type": "address"
        }
      ],
      "name": "setKittyContractAddress",
      "outputs": [],
      "payable": false,
      "stateMutability": "nonpayable",
      "type": "function"
    },
    {
      "constant": false,
      "inputs": [
        {
          "internalType": "uint256",
          "name": "_fee",
          "type": "uint256"
        }
      ],
      "name": "setLevelUpFee",
      "outputs": [],
      "payable": false,
      "stateMutability": "nonpayable",
      "type": "function"
    },
    {
      "constant": false,
      "inputs": [
        {
          "internalType": "address payable",
          "name": "_address",
          "type": "address"
        },
        {
          "internalType": "uint256",
          "name": "value",
          "type": "uint256"
        }
      ],
      "name": "transfer",
      "outputs": [],
      "payable": true,
      "stateMutability": "payable",
      "type": "function"
    },
    {
      "constant": false,
      "inputs": [
        {
          "internalType": "address",
          "name": "newOwner",
          "type": "address"
        }
      ],
      "name": "transferOwnership",
      "outputs": [],
      "payable": false,
      "stateMutability": "nonpayable",
      "type": "function"
    },
    {
      "constant": true,
      "inputs": [
        {
          "internalType": "uint256",
          "name": "",
          "type": "uint256"
        }
      ],
      "name": "zombieToOwner",
      "outputs": [
        {
          "internalType": "address",
          "name": "",
          "type": "address"
        }
      ],
      "payable": false,
      "stateMutability": "view",
      "type": "function"
    },
    {
      "constant": true,
      "inputs": [
        {
          "internalType": "uint256",
          "name": "",
          "type": "uint256"
        }
      ],
      "name": "zombies",
      "outputs": [
        {
          "internalType": "string",
          "name": "name",
          "type": "string"
        },
        {
          "internalType": "uint256",
          "name": "dna",
          "type": "uint256"
        },
        {
          "internalType": "uint32",
          "name": "level",
          "type": "uint32"
        },
        {
          "internalType": "uint32",
          "name": "readyTime",
          "type": "uint32"
        },
        {
          "internalType": "uint16",
          "name": "winCount",
          "type": "uint16"
        },
        {
          "internalType": "uint16",
          "name": "lossCount",
          "type": "uint16"
        }
      ],
      "payable": false,
      "stateMutability": "view",
      "type": "function"
    },
    {
      "constant": true,
      "inputs": [
        {
          "internalType": "address",
          "name": "_owner",
          "type": "address"
        }
      ],
      "name": "balanceOf",
      "outputs": [
        {
          "internalType": "uint256",
          "name": "",
          "type": "uint256"
        }
      ],
      "payable": false,
      "stateMutability": "view",
      "type": "function"
    },
    {
      "constant": true,
      "inputs": [
        {
          "internalType": "uint256",
          "name": "_tokenId",
          "type": "uint256"
        }
      ],
      "name": "ownerOf",
      "outputs": [
        {
          "internalType": "address",
          "name": "",
          "type": "address"
        }
      ],
      "payable": false,
      "stateMutability": "view",
      "type": "function"
    },
    {
      "constant": false,
      "inputs": [
        {
          "internalType": "address",
          "name": "_from",
          "type": "address"
        },
        {
          "internalType": "address",
          "name": "_to",
          "type": "address"
        },
        {
          "internalType": "uint256",
          "name": "_tokenId",
          "type": "uint256"
        }
      ],
      "name": "transferFrom",
      "outputs": [],
      "payable": true,
      "stateMutability": "payable",
      "type": "function"
    },
    {
      "constant": false,
      "inputs": [
        {
          "internalType": "address",
          "name": "_approved",
          "type": "address"
        },
        {
          "internalType": "uint256",
          "name": "_tokenId",
          "type": "uint256"
        }
      ],
      "name": "approve",
      "outputs": [],
      "payable": true,
      "stateMutability": "payable",
      "type": "function"
    },
    {
      "constant": false,
      "inputs": [
        {
          "internalType": "address",
          "name": "_approved",
          "type": "address"
        },
        {
          "internalType": "uint256",
          "name": "_tokenId",
          "type": "uint256"
        }
      ],
      "name": "transferTo",
      "outputs": [],
      "payable": true,
      "stateMutability": "payable",
      "type": "function"
    }
  ],
  "bytecode": "0x60806040526010600155600154600a0a60025561012c6003556706f05b59d3b2000060085560006009556046600a55336000806101000a81548173ffffffffffffffffffffffffffffffffffffffff021916908373ffffffffffffffffffffffffffffffffffffffff1602179055506000809054906101000a900473ffffffffffffffffffffffffffffffffffffffff1673ffffffffffffffffffffffffffffffffffffffff16600073ffffffffffffffffffffffffffffffffffffffff167f8be0079c531659141344cd1fd0a4f28419497f9722a3daafe3b4186f6b6457e060405160405180910390a3612573806100f96000396000f3fe6080604052600436106101355760003560e01c80636352211e116100ab5780638f32d59b1161006f5780638f32d59b14610829578063a9059cbb14610858578063c39cbef1146108a6578063ccf670f81461096b578063e1fa7638146109a6578063f2fde38b146109eb57610135565b80636352211e1461061357806370a082311461068e578063715018a6146106f35780637bff0a011461070a5780638da5cb5b146107d257610135565b80632ccb1b30116100fd5780632ccb1b30146103685780634412e104146103b6578063528b7b8f1461045c5780635cdbc107146104d75780635f4623f11461057d5780635faf2880146105ce57610135565b8063095ea7b31461013a5780630ce90ec21461018857806317a7f4cc146101b65780632052465e146101fb57806323b872dd146102fa575b600080fd5b6101866004803603604081101561015057600080fd5b81019080803573ffffffffffffffffffffffffffffffffffffffff16906020019092919080359060200190929190505050610a3c565b005b6101b46004803603602081101561019e57600080fd5b8101908080359060200190929190505050610b5a565b005b3480156101c257600080fd5b506101f9600480360360408110156101d957600080fd5b810190808035906020019092919080359060200190929190505050610c58565b005b34801561020757600080fd5b506102346004803603602081101561021e57600080fd5b8101908080359060200190929190505050610de3565b60405180806020018781526020018663ffffffff1663ffffffff1681526020018563ffffffff1663ffffffff1681526020018461ffff1661ffff1681526020018361ffff1661ffff168152602001828103825288818151815260200191508051906020019080838360005b838110156102ba57808201518184015260208101905061029f565b50505050905090810190601f1680156102e75780820380516001836020036101000a031916815260200191505b5097505050505050505060405180910390f35b6103666004803603606081101561031057600080fd5b81019080803573ffffffffffffffffffffffffffffffffffffffff169060200190929190803573ffffffffffffffffffffffffffffffffffffffff16906020019092919080359060200190929190505050610f00565b005b6103b46004803603604081101561037e57600080fd5b81019080803573ffffffffffffffffffffffffffffffffffffffff16906020019092919080359060200190929190505050610fe4565b005b3480156103c257600080fd5b50610405600480360360208110156103d957600080fd5b81019080803573ffffffffffffffffffffffffffffffffffffffff169060200190929190505050611060565b6040518080602001828103825283818151815260200191508051906020019060200280838360005b8381101561044857808201518184015260208101905061042d565b505050509050019250505060405180910390f35b34801561046857600080fd5b506104956004803603602081101561047f57600080fd5b810190808035906020019092919050505061118d565b604051808273ffffffffffffffffffffffffffffffffffffffff1673ffffffffffffffffffffffffffffffffffffffff16815260200191505060405180910390f35b3480156104e357600080fd5b50610526600480360360208110156104fa57600080fd5b81019080803573ffffffffffffffffffffffffffffffffffffffff1690602001909291905050506111c0565b6040518080602001828103825283818151815260200191508051906020019060200280838360005b8381101561056957808201518184015260208101905061054e565b505050509050019250505060405180910390f35b34801561058957600080fd5b506105cc600480360360208110156105a057600080fd5b81019080803573ffffffffffffffffffffffffffffffffffffffff1690602001909291905050506112bb565b005b3480156105da57600080fd5b50610611600480360360408110156105f157600080fd5b810190808035906020019092919080359060200190929190505050611310565b005b34801561061f57600080fd5b5061064c6004803603602081101561063657600080fd5b81019080803590602001909291905050506113ea565b604051808273ffffffffffffffffffffffffffffffffffffffff1673ffffffffffffffffffffffffffffffffffffffff16815260200191505060405180910390f35b34801561069a57600080fd5b506106dd600480360360208110156106b157600080fd5b81019080803573ffffffffffffffffffffffffffffffffffffffff169060200190929190505050611427565b6040518082815260200191505060405180910390f35b3480156106ff57600080fd5b50610708611470565b005b34801561071657600080fd5b506107d06004803603602081101561072d57600080fd5b810190808035906020019064010000000081111561074a57600080fd5b82018360208201111561075c57600080fd5b8035906020019184600183028401116401000000008311171561077e57600080fd5b91908080601f016020809104026020016040519081016040528093929190818152602001838380828437600081840152601f19601f820116905080830192505050505050509192919290505050611540565b005b3480156107de57600080fd5b506107e761161f565b604051808273ffffffffffffffffffffffffffffffffffffffff1673ffffffffffffffffffffffffffffffffffffffff16815260200191505060405180910390f35b34801561083557600080fd5b5061083e611648565b604051808215151515815260200191505060405180910390f35b6108a46004803603604081101561086e57600080fd5b81019080803573ffffffffffffffffffffffffffffffffffffffff1690602001909291908035906020019092919050505061169f565b005b610969600480360360408110156108bc57600080fd5b8101908080359060200190929190803590602001906401000000008111156108e357600080fd5b8201836020820111156108f557600080fd5b8035906020019184600183028401116401000000008311171561091757600080fd5b91908080601f016020809104026020016040519081016040528093929190818152602001838380828437600081840152601f19601f8201169050808301925050505050505091929192905050506116ea565b005b34801561097757600080fd5b506109a46004803603602081101561098e57600080fd5b81019080803590602001909291905050506117d4565b005b3480156109b257600080fd5b506109e9600480360360408110156109c957600080fd5b8101908080359060200190929190803590602001909291905050506117ef565b005b3480156109f757600080fd5b50610a3a60048036036020811015610a0e57600080fd5b81019080803573ffffffffffffffffffffffffffffffffffffffff169060200190929190505050611a7b565b005b806005600082815260200190815260200160002060009054906101000a900473ffffffffffffffffffffffffffffffffffffffff1673ffffffffffffffffffffffffffffffffffffffff163373ffffffffffffffffffffffffffffffffffffffff1614610aa857600080fd5b82600b600084815260200190815260200160002060006101000a81548173ffffffffffffffffffffffffffffffffffffffff021916908373ffffffffffffffffffffffffffffffffffffffff160217905550818373ffffffffffffffffffffffffffffffffffffffff163373ffffffffffffffffffffffffffffffffffffffff167f8c5be1e5ebec7d5bd14f71427d1e84f3dd0314c0f7b2291e5b200ac8c7c3b92560405160405180910390a4505050565b6008543414610bd1576040517f08c379a000000000000000000000000000000000000000000000000000000000815260040180806020018281038252601b8152602001807f596f7520646f6e7420656e6f7567682045746865722076616c7565000000000081525060200191505060405180910390fd5b610c19600160048381548110610be357fe5b906000526020600020906003020160020160009054906101000a900463ffffffff1663ffffffff16611a9890919063ffffffff16565b60048281548110610c2657fe5b906000526020600020906003020160020160006101000a81548163ffffffff021916908363ffffffff16021790555050565b6000600760009054906101000a900473ffffffffffffffffffffffffffffffffffffffff1673ffffffffffffffffffffffffffffffffffffffff1663e98b7f4d836040518263ffffffff1660e01b8152600401808281526020019150506101406040518083038186803b158015610cce57600080fd5b505afa158015610ce2573d6000803e3d6000fd5b505050506040513d610140811015610cf957600080fd5b810190808051906020019092919080519060200190929190805190602001909291908051906020019092919080519060200190929190805190602001909291908051906020019092919080519060200190929190805190602001909291908051906020019092919050505090919293949596979850909192939495969750909192939495965090919293949550909192939450909192935090919250909150905080915050610dde83826040518060400160405280600581526020017f6b69747479000000000000000000000000000000000000000000000000000000815250611ac0565b505050565b60048181548110610df057fe5b9060005260206000209060030201600091509050806000018054600181600116156101000203166002900480601f016020809104026020016040519081016040528092919081815260200182805460018160011615610100020316600290048015610e9c5780601f10610e7157610100808354040283529160200191610e9c565b820191906000526020600020905b815481529060010190602001808311610e7f57829003601f168201915b5050505050908060010154908060020160009054906101000a900463ffffffff16908060020160049054906101000a900463ffffffff16908060020160089054906101000a900461ffff169080600201600a9054906101000a900461ffff16905086565b3373ffffffffffffffffffffffffffffffffffffffff166005600083815260200190815260200160002060009054906101000a900473ffffffffffffffffffffffffffffffffffffffff1673ffffffffffffffffffffffffffffffffffffffff161480610fcb57503373ffffffffffffffffffffffffffffffffffffffff16600b600083815260200190815260200160002060009054906101000a900473ffffffffffffffffffffffffffffffffffffffff1673ffffffffffffffffffffffffffffffffffffffff16145b610fd457600080fd5b610fdf838383611ca2565b505050565b806005600082815260200190815260200160002060009054906101000a900473ffffffffffffffffffffffffffffffffffffffff1673ffffffffffffffffffffffffffffffffffffffff163373ffffffffffffffffffffffffffffffffffffffff161461105057600080fd5b61105b338484611ca2565b505050565b606080600660008473ffffffffffffffffffffffffffffffffffffffff1673ffffffffffffffffffffffffffffffffffffffff168152602001908152602001600020546040519080825280602002602001820160405280156110d15781602001602082028038833980820191505090505b509050600080905060008090505b600480549050811015611182578473ffffffffffffffffffffffffffffffffffffffff166005600083815260200190815260200160002060009054906101000a900473ffffffffffffffffffffffffffffffffffffffff1673ffffffffffffffffffffffffffffffffffffffff161415611175578083838151811061116057fe5b60200260200101818152505081806001019250505b80806001019150506110df565b508192505050919050565b60056020528060005260406000206000915054906101000a900473ffffffffffffffffffffffffffffffffffffffff1681565b606080600a6040519080825280602002602001820160405280156111f35781602001602082028038833980820191505090505b509050600080905060008090505b6004805490508110156112b0578473ffffffffffffffffffffffffffffffffffffffff166005600083815260200190815260200160002060009054906101000a900473ffffffffffffffffffffffffffffffffffffffff1673ffffffffffffffffffffffffffffffffffffffff1614611296578083838151811061128157fe5b60200260200101818152505081806001019250505b600a82106112a3576112b0565b8080600101915050611201565b508192505050919050565b6112c3611648565b6112cc57600080fd5b80600760006101000a81548173ffffffffffffffffffffffffffffffffffffffff021916908373ffffffffffffffffffffffffffffffffffffffff16021790555050565b600a82816004828154811061132157fe5b906000526020600020906003020160020160009054906101000a900463ffffffff1663ffffffff16101561135457600080fd5b836005600082815260200190815260200160002060009054906101000a900473ffffffffffffffffffffffffffffffffffffffff1673ffffffffffffffffffffffffffffffffffffffff163373ffffffffffffffffffffffffffffffffffffffff16146113c057600080fd5b83600486815481106113ce57fe5b9060005260206000209060030201600101819055505050505050565b60006005600083815260200190815260200160002060009054906101000a900473ffffffffffffffffffffffffffffffffffffffff169050919050565b6000600660008373ffffffffffffffffffffffffffffffffffffffff1673ffffffffffffffffffffffffffffffffffffffff168152602001908152602001600020549050919050565b611478611648565b61148157600080fd5b600073ffffffffffffffffffffffffffffffffffffffff166000809054906101000a900473ffffffffffffffffffffffffffffffffffffffff1673ffffffffffffffffffffffffffffffffffffffff167f8be0079c531659141344cd1fd0a4f28419497f9722a3daafe3b4186f6b6457e060405160405180910390a360008060006101000a81548173ffffffffffffffffffffffffffffffffffffffff021916908373ffffffffffffffffffffffffffffffffffffffff160217905550565b6003600660003373ffffffffffffffffffffffffffffffffffffffff1673ffffffffffffffffffffffffffffffffffffffff16815260200190815260200160002054106115f5576040517f08c379a000000000000000000000000000000000000000000000000000000000815260040180806020018281038252601b8152602001807f596f7520617265206f6e6c79206d6164652033207a6f6d62696573000000000081525060200191505060405180910390fd5b600061160082611e80565b90506064818161160c57fe5b068103905061161b8282611f0e565b5050565b60008060009054906101000a900473ffffffffffffffffffffffffffffffffffffffff16905090565b60008060009054906101000a900473ffffffffffffffffffffffffffffffffffffffff1673ffffffffffffffffffffffffffffffffffffffff163373ffffffffffffffffffffffffffffffffffffffff1614905090565b8173ffffffffffffffffffffffffffffffffffffffff166108fc829081150290604051600060405180830381858888f193505050501580156116e5573d6000803e3d6000fd5b505050565b60028281600482815481106116fb57fe5b906000526020600020906003020160020160009054906101000a900463ffffffff1663ffffffff16101561172e57600080fd5b836005600082815260200190815260200160002060009054906101000a900473ffffffffffffffffffffffffffffffffffffffff1673ffffffffffffffffffffffffffffffffffffffff163373ffffffffffffffffffffffffffffffffffffffff161461179a57600080fd5b83600486815481106117a857fe5b906000526020600020906003020160000190805190602001906117cc929190612419565b505050505050565b6117dc611648565b6117e557600080fd5b8060088190555050565b816005600082815260200190815260200160002060009054906101000a900473ffffffffffffffffffffffffffffffffffffffff1673ffffffffffffffffffffffffffffffffffffffff163373ffffffffffffffffffffffffffffffffffffffff161461185b57600080fd5b60006004848154811061186a57fe5b9060005260206000209060030201905060006004848154811061188957fe5b9060005260206000209060030201905060006118a560646121e0565b9050600a5481116119d9576118da60018460020160089054906101000a900461ffff1661ffff1661227990919063ffffffff16565b8360020160086101000a81548161ffff021916908361ffff16021790555061192660018460020160009054906101000a900463ffffffff1663ffffffff16611a9890919063ffffffff16565b8360020160006101000a81548163ffffffff021916908363ffffffff160217905550611972600183600201600a9054906101000a900461ffff1661ffff1661227990919063ffffffff16565b82600201600a6101000a81548161ffff021916908361ffff1602179055506119d48683600101546040518060400160405280600681526020017f7a6f6d6269650000000000000000000000000000000000000000000000000000815250611ac0565b611a73565b611a03600184600201600a9054906101000a900461ffff1661ffff1661227990919063ffffffff16565b83600201600a6101000a81548161ffff021916908361ffff160217905550611a4b60018360020160089054906101000a900461ffff1661ffff1661227990919063ffffffff16565b8260020160086101000a81548161ffff021916908361ffff160217905550611a728361229d565b5b505050505050565b611a83611648565b611a8c57600080fd5b611a95816122c7565b50565b60008082840190508363ffffffff168163ffffffff161015611ab657fe5b8091505092915050565b826005600082815260200190815260200160002060009054906101000a900473ffffffffffffffffffffffffffffffffffffffff1673ffffffffffffffffffffffffffffffffffffffff163373ffffffffffffffffffffffffffffffffffffffff1614611b2c57600080fd5b600060048581548110611b3b57fe5b90600052602060002090600302019050611b54816123bf565b611b5d57600080fd5b6002548481611b6857fe5b069350600060028583600101540181611b7d57fe5b04905060405160200180807f6b69747479000000000000000000000000000000000000000000000000000000815250600501905060405160208183030381529060405280519060200120846040516020018082805190602001908083835b60208310611bfe5780518252602082019150602081019050602083039250611bdb565b6001836020036101000a038019825116818451168082178552505050505050905001915050604051602081830303815290604052805190602001201415611c5257606360648281611c4b57fe5b0682030190505b611c916040518060400160405280600681526020017f4e6f4e616d65000000000000000000000000000000000000000000000000000081525082611f0e565b611c9a8261229d565b505050505050565b611cf56001600660008573ffffffffffffffffffffffffffffffffffffffff1673ffffffffffffffffffffffffffffffffffffffff168152602001908152602001600020546123e690919063ffffffff16565b600660008473ffffffffffffffffffffffffffffffffffffffff1673ffffffffffffffffffffffffffffffffffffffff16815260200190815260200160002081905550611d8b6001600660003373ffffffffffffffffffffffffffffffffffffffff1673ffffffffffffffffffffffffffffffffffffffff1681526020019081526020016000205461240290919063ffffffff16565b600660003373ffffffffffffffffffffffffffffffffffffffff1673ffffffffffffffffffffffffffffffffffffffff16815260200190815260200160002081905550816005600083815260200190815260200160002060006101000a81548173ffffffffffffffffffffffffffffffffffffffff021916908373ffffffffffffffffffffffffffffffffffffffff160217905550808273ffffffffffffffffffffffffffffffffffffffff168473ffffffffffffffffffffffffffffffffffffffff167fddf252ad1be2c89b69c2b068fc378daa952ba7f163c4a11628f55a4df523b3ef60405160405180910390a4505050565b600080826040516020018082805190602001908083835b60208310611eba5780518252602082019150602081019050602083039250611e97565b6001836020036101000a0380198251168184511680821785525050505050509050019150506040516020818303038152906040528051906020012060001c90506002548181611f0557fe5b06915050919050565b6000600160046040518060c00160405280868152602001858152602001600163ffffffff168152602001600354420163ffffffff168152602001600061ffff168152602001600061ffff16815250908060018154018082558091505090600182039060005260206000209060030201600090919290919091506000820151816000019080519060200190611fa3929190612499565b506020820151816001015560408201518160020160006101000a81548163ffffffff021916908363ffffffff16021790555060608201518160020160046101000a81548163ffffffff021916908363ffffffff16021790555060808201518160020160086101000a81548161ffff021916908361ffff16021790555060a082015181600201600a6101000a81548161ffff021916908361ffff1602179055505050039050336005600083815260200190815260200160002060006101000a81548173ffffffffffffffffffffffffffffffffffffffff021916908373ffffffffffffffffffffffffffffffffffffffff1602179055506120ec6001600660003373ffffffffffffffffffffffffffffffffffffffff1673ffffffffffffffffffffffffffffffffffffffff168152602001908152602001600020546123e690919063ffffffff16565b600660003373ffffffffffffffffffffffffffffffffffffffff1673ffffffffffffffffffffffffffffffffffffffff168152602001908152602001600020819055507f88f026aacbbecc90c18411df4b1185fd8d9be2470f1962f192bf84a27d0704b78184846040518084815260200180602001838152602001828103825284818151815260200191508051906020019080838360005b8381101561219f578082015181840152602081019050612184565b50505050905090810190601f1680156121cc5780820380516001836020036101000a031916815260200191505b5094505050505060405180910390a1505050565b60006121f860016009546123e690919063ffffffff16565b600981905550814233600954604051602001808481526020018373ffffffffffffffffffffffffffffffffffffffff1673ffffffffffffffffffffffffffffffffffffffff1660601b815260140182815260200193505050506040516020818303038152906040528051906020012060001c8161227157fe5b069050919050565b60008082840190508361ffff168161ffff16101561229357fe5b8091505092915050565b60035442018160020160046101000a81548163ffffffff021916908363ffffffff16021790555050565b600073ffffffffffffffffffffffffffffffffffffffff168173ffffffffffffffffffffffffffffffffffffffff16141561230157600080fd5b8073ffffffffffffffffffffffffffffffffffffffff166000809054906101000a900473ffffffffffffffffffffffffffffffffffffffff1673ffffffffffffffffffffffffffffffffffffffff167f8be0079c531659141344cd1fd0a4f28419497f9722a3daafe3b4186f6b6457e060405160405180910390a3806000806101000a81548173ffffffffffffffffffffffffffffffffffffffff021916908373ffffffffffffffffffffffffffffffffffffffff16021790555050565b6000428260020160049054906101000a900463ffffffff1663ffffffff1611159050919050565b6000808284019050838110156123f857fe5b8091505092915050565b60008282111561240e57fe5b818303905092915050565b828054600181600116156101000203166002900490600052602060002090601f016020900481019282601f1061245a57805160ff1916838001178555612488565b82800160010185558215612488579182015b8281111561248757825182559160200191906001019061246c565b5b5090506124959190612519565b5090565b828054600181600116156101000203166002900490600052602060002090601f016020900481019282601f106124da57805160ff1916838001178555612508565b82800160010185558215612508579182015b828111156125075782518255916020019190600101906124ec565b5b5090506125159190612519565b5090565b61253b91905b8082111561253757600081600090555060010161251f565b5090565b9056fea265627a7a723158200c17b143a8225f2fa3a2bb7a246dde07f4741c29d950f1b2e1e85922ee71840464736f6c63430005100032",
  "source": "pragma solidity >=0.5.0 <0.6.0;\r\n\r\nimport \"./ZombieAttack.sol\";\r\nimport \"./ERC721.sol\";\r\nimport \"./SafeMath.sol\";\r\n\r\ncontract ZombieOwnership is ZombieAttack, ERC721 {\r\n\r\n    using SafeMath for uint256;\r\n\r\n    mapping (uint => address) zombieApprovals;\r\n\r\n    function balanceOf(address _owner) external view returns (uint256) {\r\n        return ownerZombieCount[_owner];\r\n    }\r\n\r\n    function ownerOf(uint256 _tokenId) external view returns (address) {\r\n        return zombieToOwner[_tokenId];\r\n    }\r\n\r\n    function _transfer(address _from, address _to, uint256 _tokenId) private {\r\n        ownerZombieCount[_to] = ownerZombieCount[_to].add(1);\r\n        ownerZombieCount[msg.sender] = ownerZombieCount[msg.sender].sub(1);\r\n        zombieToOwner[_tokenId] = _to;\r\n        emit Transfer(_from, _to, _tokenId);\r\n    }\r\n\r\n    function transferFrom(address _from, address _to, uint256 _tokenId) external payable {\r\n        require (zombieToOwner[_tokenId] == msg.sender || zombieApprovals[_tokenId] == msg.sender);\r\n        _transfer(_from, _to, _tokenId);\r\n    }\r\n\r\n    function approve(address _approved, uint256 _tokenId) external payable onlyOwnerOf(_tokenId) {\r\n        zombieApprovals[_tokenId] = _approved;\r\n        emit Approval(msg.sender, _approved, _tokenId);\r\n    }\r\n\r\n    function transferTo(address _approved, uint256 _tokenId) public payable  onlyOwnerOf(_tokenId) {\r\n        _transfer(msg.sender, _approved, _tokenId);\r\n    }\r\n}\r\n",
  "sourcePath": "H:\\workspace\\1.project\\book-sol\\bookstore\\contracts\\ZombieOwnerShip.sol",
  "compiler": {
    "name": "solc",
    "version": "0.5.16+commit.9c3226ce.Emscripten.clang"
  },
  "schemaVersion": "3.4.3",
  "updatedAt": "2021-08-25T11:11:15.267Z",
  "networkType": "ethereum",
  "devdoc": {
    "methods": {
      "isOwner()": {
        "return": "true if `msg.sender` is the owner of the contract."
      },
      "owner()": {
        "return": "the address of the owner."
      },
      "renounceOwnership()": {
        "details": "Allows the current owner to relinquish control of the contract."
      },
      "transferOwnership(address)": {
        "details": "Allows the current owner to transfer control of the contract to a newOwner.",
        "params": {
          "newOwner": "The address to transfer ownership to."
        }
      }
    }
  },
  "userdoc": {
    "methods": {
      "renounceOwnership()": {
        "notice": "Renouncing to ownership will leave the contract without an owner. It will not be possible to call the functions with the `onlyOwner` modifier anymore."
      },
      "transfer(address,uint256)": {
        "notice": "/        payable(_owner).transfer(address(this).balance);"
      }
    }
  }
}