{
  "contractName": "ZombieHelper",
  "abi": [
    {
      "anonymous": false,
      "inputs": [
        {
          "indexed": false,
          "internalType": "uint256",
          "name": "zombieId",
          "type": "uint256"
        },
        {
          "indexed": false,
          "internalType": "string",
          "name": "name",
          "type": "string"
        },
        {
          "indexed": false,
          "internalType": "uint256",
          "name": "dna",
          "type": "uint256"
        }
      ],
      "name": "NewZombie",
      "type": "event"
    },
    {
      "anonymous": false,
      "inputs": [
        {
          "indexed": true,
          "internalType": "address",
          "name": "previousOwner",
          "type": "address"
        },
        {
          "indexed": true,
          "internalType": "address",
          "name": "newOwner",
          "type": "address"
        }
      ],
      "name": "OwnershipTransferred",
      "type": "event"
    },
    {
      "constant": false,
      "inputs": [
        {
          "internalType": "string",
          "name": "_name",
          "type": "string"
        }
      ],
      "name": "createRandomZombie",
      "outputs": [],
      "payable": false,
      "stateMutability": "nonpayable",
      "type": "function"
    },
    {
      "constant": false,
      "inputs": [
        {
          "internalType": "uint256",
          "name": "_zombieId",
          "type": "uint256"
        },
        {
          "internalType": "uint256",
          "name": "_kittyId",
          "type": "uint256"
        }
      ],
      "name": "feedOnKitty",
      "outputs": [],
      "payable": false,
      "stateMutability": "nonpayable",
      "type": "function"
    },
    {
      "constant": true,
      "inputs": [],
      "name": "isOwner",
      "outputs": [
        {
          "internalType": "bool",
          "name": "",
          "type": "bool"
        }
      ],
      "payable": false,
      "stateMutability": "view",
      "type": "function"
    },
    {
      "constant": true,
      "inputs": [],
      "name": "owner",
      "outputs": [
        {
          "internalType": "address",
          "name": "",
          "type": "address"
        }
      ],
      "payable": false,
      "stateMutability": "view",
      "type": "function"
    },
    {
      "constant": false,
      "inputs": [],
      "name": "renounceOwnership",
      "outputs": [],
      "payable": false,
      "stateMutability": "nonpayable",
      "type": "function"
    },
    {
      "constant": false,
      "inputs": [
        {
          "internalType": "address",
          "name": "_address",
          "type": "address"
        }
      ],
      "name": "setKittyContractAddress",
      "outputs": [],
      "payable": false,
      "stateMutability": "nonpayable",
      "type": "function"
    },
    {
      "constant": false,
      "inputs": [
        {
          "internalType": "address",
          "name": "newOwner",
          "type": "address"
        }
      ],
      "name": "transferOwnership",
      "outputs": [],
      "payable": false,
      "stateMutability": "nonpayable",
      "type": "function"
    },
    {
      "constant": true,
      "inputs": [
        {
          "internalType": "uint256",
          "name": "",
          "type": "uint256"
        }
      ],
      "name": "zombieToOwner",
      "outputs": [
        {
          "internalType": "address",
          "name": "",
          "type": "address"
        }
      ],
      "payable": false,
      "stateMutability": "view",
      "type": "function"
    },
    {
      "constant": true,
      "inputs": [
        {
          "internalType": "uint256",
          "name": "",
          "type": "uint256"
        }
      ],
      "name": "zombies",
      "outputs": [
        {
          "internalType": "string",
          "name": "name",
          "type": "string"
        },
        {
          "internalType": "uint256",
          "name": "dna",
          "type": "uint256"
        },
        {
          "internalType": "uint32",
          "name": "level",
          "type": "uint32"
        },
        {
          "internalType": "uint32",
          "name": "readyTime",
          "type": "uint32"
        },
        {
          "internalType": "uint16",
          "name": "winCount",
          "type": "uint16"
        },
        {
          "internalType": "uint16",
          "name": "lossCount",
          "type": "uint16"
        }
      ],
      "payable": false,
      "stateMutability": "view",
      "type": "function"
    },
    {
      "constant": false,
      "inputs": [
        {
          "internalType": "address payable",
          "name": "_address",
          "type": "address"
        },
        {
          "internalType": "uint256",
          "name": "value",
          "type": "uint256"
        }
      ],
      "name": "transfer",
      "outputs": [],
      "payable": true,
      "stateMutability": "payable",
      "type": "function"
    },
    {
      "constant": false,
      "inputs": [
        {
          "internalType": "uint256",
          "name": "_fee",
          "type": "uint256"
        }
      ],
      "name": "setLevelUpFee",
      "outputs": [],
      "payable": false,
      "stateMutability": "nonpayable",
      "type": "function"
    },
    {
      "constant": false,
      "inputs": [
        {
          "internalType": "uint256",
          "name": "_zombieId",
          "type": "uint256"
        }
      ],
      "name": "levelUp",
      "outputs": [],
      "payable": true,
      "stateMutability": "payable",
      "type": "function"
    },
    {
      "constant": false,
      "inputs": [
        {
          "internalType": "uint256",
          "name": "_zombieId",
          "type": "uint256"
        },
        {
          "internalType": "string",
          "name": "_newName",
          "type": "string"
        }
      ],
      "name": "changeName",
      "outputs": [],
      "payable": true,
      "stateMutability": "payable",
      "type": "function"
    },
    {
      "constant": false,
      "inputs": [
        {
          "internalType": "uint256",
          "name": "_zombieId",
          "type": "uint256"
        },
        {
          "internalType": "uint256",
          "name": "_newDna",
          "type": "uint256"
        }
      ],
      "name": "changeDna",
      "outputs": [],
      "payable": false,
      "stateMutability": "nonpayable",
      "type": "function"
    },
    {
      "constant": true,
      "inputs": [
        {
          "internalType": "address",
          "name": "_owner",
          "type": "address"
        }
      ],
      "name": "getZombiesByOwner",
      "outputs": [
        {
          "internalType": "uint256[]",
          "name": "",
          "type": "uint256[]"
        }
      ],
      "payable": false,
      "stateMutability": "view",
      "type": "function"
    },
    {
      "constant": true,
      "inputs": [
        {
          "internalType": "address",
          "name": "_owner",
          "type": "address"
        }
      ],
      "name": "getZombiesNotOwner",
      "outputs": [
        {
          "internalType": "uint256[]",
          "name": "",
          "type": "uint256[]"
        }
      ],
      "payable": false,
      "stateMutability": "view",
      "type": "function"
    }
  ],
  "bytecode": "0x60806040526010600155600154600a0a60025561012c6003556706f05b59d3b20000600855336000806101000a81548173ffffffffffffffffffffffffffffffffffffffff021916908373ffffffffffffffffffffffffffffffffffffffff1602179055506000809054906101000a900473ffffffffffffffffffffffffffffffffffffffff1673ffffffffffffffffffffffffffffffffffffffff16600073ffffffffffffffffffffffffffffffffffffffff167f8be0079c531659141344cd1fd0a4f28419497f9722a3daafe3b4186f6b6457e060405160405180910390a3611ac0806100ef6000396000f3fe6080604052600436106100f35760003560e01c8063715018a61161008a578063a9059cbb11610059578063a9059cbb1461062c578063c39cbef11461067a578063ccf670f81461073f578063f2fde38b1461077a576100f3565b8063715018a6146104c75780637bff0a01146104de5780638da5cb5b146105a65780638f32d59b146105fd576100f3565b8063528b7b8f116100c6578063528b7b8f146103105780635cdbc1071461038b5780635f4623f1146104315780635faf288014610482576100f3565b80630ce90ec2146100f857806317a7f4cc146101265780632052465e1461016b5780634412e1041461026a575b600080fd5b6101246004803603602081101561010e57600080fd5b81019080803590602001909291905050506107cb565b005b34801561013257600080fd5b506101696004803603604081101561014957600080fd5b8101908080359060200190929190803590602001909291905050506108c9565b005b34801561017757600080fd5b506101a46004803603602081101561018e57600080fd5b8101908080359060200190929190505050610a54565b60405180806020018781526020018663ffffffff1663ffffffff1681526020018563ffffffff1663ffffffff1681526020018461ffff1661ffff1681526020018361ffff1661ffff168152602001828103825288818151815260200191508051906020019080838360005b8381101561022a57808201518184015260208101905061020f565b50505050905090810190601f1680156102575780820380516001836020036101000a031916815260200191505b5097505050505050505060405180910390f35b34801561027657600080fd5b506102b96004803603602081101561028d57600080fd5b81019080803573ffffffffffffffffffffffffffffffffffffffff169060200190929190505050610b71565b6040518080602001828103825283818151815260200191508051906020019060200280838360005b838110156102fc5780820151818401526020810190506102e1565b505050509050019250505060405180910390f35b34801561031c57600080fd5b506103496004803603602081101561033357600080fd5b8101908080359060200190929190505050610c9e565b604051808273ffffffffffffffffffffffffffffffffffffffff1673ffffffffffffffffffffffffffffffffffffffff16815260200191505060405180910390f35b34801561039757600080fd5b506103da600480360360208110156103ae57600080fd5b81019080803573ffffffffffffffffffffffffffffffffffffffff169060200190929190505050610cd1565b6040518080602001828103825283818151815260200191508051906020019060200280838360005b8381101561041d578082015181840152602081019050610402565b505050509050019250505060405180910390f35b34801561043d57600080fd5b506104806004803603602081101561045457600080fd5b81019080803573ffffffffffffffffffffffffffffffffffffffff169060200190929190505050610dcc565b005b34801561048e57600080fd5b506104c5600480360360408110156104a557600080fd5b810190808035906020019092919080359060200190929190505050610e21565b005b3480156104d357600080fd5b506104dc610efb565b005b3480156104ea57600080fd5b506105a46004803603602081101561050157600080fd5b810190808035906020019064010000000081111561051e57600080fd5b82018360208201111561053057600080fd5b8035906020019184600183028401116401000000008311171561055257600080fd5b91908080601f016020809104026020016040519081016040528093929190818152602001838380828437600081840152601f19601f820116905080830192505050505050509192919290505050610fcb565b005b3480156105b257600080fd5b506105bb6110aa565b604051808273ffffffffffffffffffffffffffffffffffffffff1673ffffffffffffffffffffffffffffffffffffffff16815260200191505060405180910390f35b34801561060957600080fd5b506106126110d3565b604051808215151515815260200191505060405180910390f35b6106786004803603604081101561064257600080fd5b81019080803573ffffffffffffffffffffffffffffffffffffffff1690602001909291908035906020019092919050505061112a565b005b61073d6004803603604081101561069057600080fd5b8101908080359060200190929190803590602001906401000000008111156106b757600080fd5b8201836020820111156106c957600080fd5b803590602001918460018302840111640100000000831117156106eb57600080fd5b91908080601f016020809104026020016040519081016040528093929190818152602001838380828437600081840152601f19601f820116905080830192505050505050509192919290505050611175565b005b34801561074b57600080fd5b506107786004803603602081101561076257600080fd5b810190808035906020019092919050505061125f565b005b34801561078657600080fd5b506107c96004803603602081101561079d57600080fd5b81019080803573ffffffffffffffffffffffffffffffffffffffff16906020019092919050505061127a565b005b6008543414610842576040517f08c379a000000000000000000000000000000000000000000000000000000000815260040180806020018281038252601b8152602001807f596f7520646f6e7420656e6f7567682045746865722076616c7565000000000081525060200191505060405180910390fd5b61088a60016004838154811061085457fe5b906000526020600020906003020160020160009054906101000a900463ffffffff1663ffffffff1661129790919063ffffffff16565b6004828154811061089757fe5b906000526020600020906003020160020160006101000a81548163ffffffff021916908363ffffffff16021790555050565b6000600760009054906101000a900473ffffffffffffffffffffffffffffffffffffffff1673ffffffffffffffffffffffffffffffffffffffff1663e98b7f4d836040518263ffffffff1660e01b8152600401808281526020019150506101406040518083038186803b15801561093f57600080fd5b505afa158015610953573d6000803e3d6000fd5b505050506040513d61014081101561096a57600080fd5b810190808051906020019092919080519060200190929190805190602001909291908051906020019092919080519060200190929190805190602001909291908051906020019092919080519060200190929190805190602001909291908051906020019092919050505090919293949596979850909192939495969750909192939495965090919293949550909192939450909192935090919250909150905080915050610a4f83826040518060400160405280600581526020017f6b697474790000000000000000000000000000000000000000000000000000008152506112bf565b505050565b60048181548110610a6157fe5b9060005260206000209060030201600091509050806000018054600181600116156101000203166002900480601f016020809104026020016040519081016040528092919081815260200182805460018160011615610100020316600290048015610b0d5780601f10610ae257610100808354040283529160200191610b0d565b820191906000526020600020905b815481529060010190602001808311610af057829003601f168201915b5050505050908060010154908060020160009054906101000a900463ffffffff16908060020160049054906101000a900463ffffffff16908060020160089054906101000a900461ffff169080600201600a9054906101000a900461ffff16905086565b606080600660008473ffffffffffffffffffffffffffffffffffffffff1673ffffffffffffffffffffffffffffffffffffffff16815260200190815260200160002054604051908082528060200260200182016040528015610be25781602001602082028038833980820191505090505b509050600080905060008090505b600480549050811015610c93578473ffffffffffffffffffffffffffffffffffffffff166005600083815260200190815260200160002060009054906101000a900473ffffffffffffffffffffffffffffffffffffffff1673ffffffffffffffffffffffffffffffffffffffff161415610c865780838381518110610c7157fe5b60200260200101818152505081806001019250505b8080600101915050610bf0565b508192505050919050565b60056020528060005260406000206000915054906101000a900473ffffffffffffffffffffffffffffffffffffffff1681565b606080600a604051908082528060200260200182016040528015610d045781602001602082028038833980820191505090505b509050600080905060008090505b600480549050811015610dc1578473ffffffffffffffffffffffffffffffffffffffff166005600083815260200190815260200160002060009054906101000a900473ffffffffffffffffffffffffffffffffffffffff1673ffffffffffffffffffffffffffffffffffffffff1614610da75780838381518110610d9257fe5b60200260200101818152505081806001019250505b600a8210610db457610dc1565b8080600101915050610d12565b508192505050919050565b610dd46110d3565b610ddd57600080fd5b80600760006101000a81548173ffffffffffffffffffffffffffffffffffffffff021916908373ffffffffffffffffffffffffffffffffffffffff16021790555050565b600a828160048281548110610e3257fe5b906000526020600020906003020160020160009054906101000a900463ffffffff1663ffffffff161015610e6557600080fd5b836005600082815260200190815260200160002060009054906101000a900473ffffffffffffffffffffffffffffffffffffffff1673ffffffffffffffffffffffffffffffffffffffff163373ffffffffffffffffffffffffffffffffffffffff1614610ed157600080fd5b8360048681548110610edf57fe5b9060005260206000209060030201600101819055505050505050565b610f036110d3565b610f0c57600080fd5b600073ffffffffffffffffffffffffffffffffffffffff166000809054906101000a900473ffffffffffffffffffffffffffffffffffffffff1673ffffffffffffffffffffffffffffffffffffffff167f8be0079c531659141344cd1fd0a4f28419497f9722a3daafe3b4186f6b6457e060405160405180910390a360008060006101000a81548173ffffffffffffffffffffffffffffffffffffffff021916908373ffffffffffffffffffffffffffffffffffffffff160217905550565b6003600660003373ffffffffffffffffffffffffffffffffffffffff1673ffffffffffffffffffffffffffffffffffffffff1681526020019081526020016000205410611080576040517f08c379a000000000000000000000000000000000000000000000000000000000815260040180806020018281038252601b8152602001807f596f7520617265206f6e6c79206d6164652033207a6f6d62696573000000000081525060200191505060405180910390fd5b600061108b826114a1565b90506064818161109757fe5b06810390506110a6828261152f565b5050565b60008060009054906101000a900473ffffffffffffffffffffffffffffffffffffffff16905090565b60008060009054906101000a900473ffffffffffffffffffffffffffffffffffffffff1673ffffffffffffffffffffffffffffffffffffffff163373ffffffffffffffffffffffffffffffffffffffff1614905090565b8173ffffffffffffffffffffffffffffffffffffffff166108fc829081150290604051600060405180830381858888f19350505050158015611170573d6000803e3d6000fd5b505050565b600282816004828154811061118657fe5b906000526020600020906003020160020160009054906101000a900463ffffffff1663ffffffff1610156111b957600080fd5b836005600082815260200190815260200160002060009054906101000a900473ffffffffffffffffffffffffffffffffffffffff1673ffffffffffffffffffffffffffffffffffffffff163373ffffffffffffffffffffffffffffffffffffffff161461122557600080fd5b836004868154811061123357fe5b90600052602060002090600302016000019080519060200190611257929190611966565b505050505050565b6112676110d3565b61127057600080fd5b8060088190555050565b6112826110d3565b61128b57600080fd5b61129481611801565b50565b60008082840190508363ffffffff168163ffffffff1610156112b557fe5b8091505092915050565b826005600082815260200190815260200160002060009054906101000a900473ffffffffffffffffffffffffffffffffffffffff1673ffffffffffffffffffffffffffffffffffffffff163373ffffffffffffffffffffffffffffffffffffffff161461132b57600080fd5b60006004858154811061133a57fe5b90600052602060002090600302019050611353816118f9565b61135c57600080fd5b600254848161136757fe5b06935060006002858360010154018161137c57fe5b04905060405160200180807f6b69747479000000000000000000000000000000000000000000000000000000815250600501905060405160208183030381529060405280519060200120846040516020018082805190602001908083835b602083106113fd57805182526020820191506020810190506020830392506113da565b6001836020036101000a0380198251168184511680821785525050505050509050019150506040516020818303038152906040528051906020012014156114515760636064828161144a57fe5b0682030190505b6114906040518060400160405280600681526020017f4e6f4e616d6500000000000000000000000000000000000000000000000000008152508261152f565b61149982611920565b505050505050565b600080826040516020018082805190602001908083835b602083106114db57805182526020820191506020810190506020830392506114b8565b6001836020036101000a0380198251168184511680821785525050505050509050019150506040516020818303038152906040528051906020012060001c9050600254818161152657fe5b06915050919050565b6000600160046040518060c00160405280868152602001858152602001600163ffffffff168152602001600354420163ffffffff168152602001600061ffff168152602001600061ffff168152509080600181540180825580915050906001820390600052602060002090600302016000909192909190915060008201518160000190805190602001906115c49291906119e6565b506020820151816001015560408201518160020160006101000a81548163ffffffff021916908363ffffffff16021790555060608201518160020160046101000a81548163ffffffff021916908363ffffffff16021790555060808201518160020160086101000a81548161ffff021916908361ffff16021790555060a082015181600201600a6101000a81548161ffff021916908361ffff1602179055505050039050336005600083815260200190815260200160002060006101000a81548173ffffffffffffffffffffffffffffffffffffffff021916908373ffffffffffffffffffffffffffffffffffffffff16021790555061170d6001600660003373ffffffffffffffffffffffffffffffffffffffff1673ffffffffffffffffffffffffffffffffffffffff1681526020019081526020016000205461194a90919063ffffffff16565b600660003373ffffffffffffffffffffffffffffffffffffffff1673ffffffffffffffffffffffffffffffffffffffff168152602001908152602001600020819055507f88f026aacbbecc90c18411df4b1185fd8d9be2470f1962f192bf84a27d0704b78184846040518084815260200180602001838152602001828103825284818151815260200191508051906020019080838360005b838110156117c05780820151818401526020810190506117a5565b50505050905090810190601f1680156117ed5780820380516001836020036101000a031916815260200191505b5094505050505060405180910390a1505050565b600073ffffffffffffffffffffffffffffffffffffffff168173ffffffffffffffffffffffffffffffffffffffff16141561183b57600080fd5b8073ffffffffffffffffffffffffffffffffffffffff166000809054906101000a900473ffffffffffffffffffffffffffffffffffffffff1673ffffffffffffffffffffffffffffffffffffffff167f8be0079c531659141344cd1fd0a4f28419497f9722a3daafe3b4186f6b6457e060405160405180910390a3806000806101000a81548173ffffffffffffffffffffffffffffffffffffffff021916908373ffffffffffffffffffffffffffffffffffffffff16021790555050565b6000428260020160049054906101000a900463ffffffff1663ffffffff1611159050919050565b60035442018160020160046101000a81548163ffffffff021916908363ffffffff16021790555050565b60008082840190508381101561195c57fe5b8091505092915050565b828054600181600116156101000203166002900490600052602060002090601f016020900481019282601f106119a757805160ff19168380011785556119d5565b828001600101855582156119d5579182015b828111156119d45782518255916020019190600101906119b9565b5b5090506119e29190611a66565b5090565b828054600181600116156101000203166002900490600052602060002090601f016020900481019282601f10611a2757805160ff1916838001178555611a55565b82800160010185558215611a55579182015b82811115611a54578251825591602001919060010190611a39565b5b509050611a629190611a66565b5090565b611a8891905b80821115611a84576000816000905550600101611a6c565b5090565b9056fea265627a7a723158201c5d41f4a1a3984d63c07f423e806b686b819e8d2f47d99d99e51ced2d68ddbf64736f6c63430005100032",
  "source": "pragma solidity >=0.5.0 <0.6.0;\r\n\r\nimport \"./ZombieFeeding.sol\";\r\n\r\ncontract ZombieHelper is ZombieFeeding {\r\n\r\n    uint levelUpFee = 0.5 ether;\r\n\r\n    modifier aboveLevel(uint _level, uint _zombieId) {\r\n        require(zombies[_zombieId].level >= _level);\r\n        _;\r\n    }\r\n\r\n//    function withdraw() external onlyOwner {\r\n//        address payable _owner = owner();\r\n//        _owner.transfer(address(this).balance);\r\n////        payable(_owner).transfer(address(this).balance);\r\n//    }\r\n\r\n    function transfer(address payable _address, uint value) payable public{\r\n        _address.transfer(value);\r\n    }\r\n\r\n    function setLevelUpFee(uint _fee) external onlyOwner {\r\n        levelUpFee = _fee;\r\n    }\r\n\r\n    function levelUp(uint _zombieId) public payable {\r\n        require(msg.value == levelUpFee, 'You dont enough Ether value');\r\n        zombies[_zombieId].level = zombies[_zombieId].level.add(1);\r\n//        transfer(msg.sender, levelUpFee);\r\n    }\r\n\r\n    function changeName(uint _zombieId, string memory _newName) public payable aboveLevel(2, _zombieId) onlyOwnerOf(_zombieId) {\r\n        zombies[_zombieId].name = _newName;\r\n    }\r\n\r\n    function changeDna(uint _zombieId, uint _newDna) external aboveLevel(10, _zombieId) onlyOwnerOf(_zombieId) {\r\n        zombies[_zombieId].dna = _newDna;\r\n    }\r\n\r\n    function getZombiesByOwner(address _owner) external view returns(uint[] memory) {\r\n        uint[] memory result = new uint[](ownerZombieCount[_owner]);\r\n        uint counter = 0;\r\n        for (uint i = 0; i < zombies.length; i++) {\r\n            if (zombieToOwner[i] == _owner) {\r\n                result[counter] = i;\r\n                counter++;\r\n            }\r\n        }\r\n        return result;\r\n    }\r\n\r\n    function getZombiesNotOwner(address _owner) external view returns(uint[] memory) {\r\n        uint[] memory result = new uint[](10);\r\n        uint counter = 0;\r\n        for (uint i = 0; i < zombies.length; i++) {\r\n            if (zombieToOwner[i] != _owner) {\r\n                result[counter] = i;\r\n                counter++;\r\n            }\r\n            if(counter >= 10)\r\n                break;\r\n        }\r\n        return result;\r\n    }\r\n\r\n}\r\n",
  "sourcePath": "H:\\workspace\\1.project\\book-sol\\zombie-contract\\contracts\\ZombieHelper.sol",
  "compiler": {
    "name": "solc",
    "version": "0.5.16+commit.9c3226ce.Emscripten.clang"
  },
  "schemaVersion": "3.4.3",
  "updatedAt": "2021-08-30T16:21:38.509Z",
  "devdoc": {
    "methods": {
      "isOwner()": {
        "return": "true if `msg.sender` is the owner of the contract."
      },
      "owner()": {
        "return": "the address of the owner."
      },
      "renounceOwnership()": {
        "details": "Allows the current owner to relinquish control of the contract."
      },
      "transferOwnership(address)": {
        "details": "Allows the current owner to transfer control of the contract to a newOwner.",
        "params": {
          "newOwner": "The address to transfer ownership to."
        }
      }
    }
  },
  "userdoc": {
    "methods": {
      "renounceOwnership()": {
        "notice": "Renouncing to ownership will leave the contract without an owner. It will not be possible to call the functions with the `onlyOwner` modifier anymore."
      },
      "transfer(address,uint256)": {
        "notice": "/        payable(_owner).transfer(address(this).balance);"
      }
    }
  }
}